{
  "contractName": "ProjectFIR",
  "abi": [
    {
      "inputs": [],
      "stateMutability": "nonpayable",
      "type": "constructor"
    },
    {
      "inputs": [
        {
          "internalType": "address",
          "name": "",
          "type": "address"
        }
      ],
      "name": "FIRBook",
      "outputs": [
        {
          "internalType": "string",
          "name": "name",
          "type": "string"
        },
        {
          "internalType": "string",
          "name": "email",
          "type": "string"
        },
        {
          "internalType": "string",
          "name": "phoneNumber",
          "type": "string"
        },
        {
          "internalType": "string",
          "name": "streetAddress",
          "type": "string"
        },
        {
          "internalType": "string",
          "name": "city",
          "type": "string"
        },
        {
          "internalType": "string",
          "name": "zipCode",
          "type": "string"
        },
        {
          "internalType": "string",
          "name": "witness",
          "type": "string"
        },
        {
          "internalType": "string",
          "name": "incidentDate",
          "type": "string"
        },
        {
          "internalType": "string",
          "name": "details",
          "type": "string"
        }
      ],
      "stateMutability": "view",
      "type": "function",
      "constant": true
    },
    {
      "inputs": [
        {
          "internalType": "uint256",
          "name": "",
          "type": "uint256"
        }
      ],
      "name": "Records",
      "outputs": [
        {
          "internalType": "string",
          "name": "name",
          "type": "string"
        },
        {
          "internalType": "string",
          "name": "email",
          "type": "string"
        },
        {
          "internalType": "string",
          "name": "phoneNumber",
          "type": "string"
        },
        {
          "internalType": "string",
          "name": "streetAddress",
          "type": "string"
        },
        {
          "internalType": "string",
          "name": "city",
          "type": "string"
        },
        {
          "internalType": "string",
          "name": "zipCode",
          "type": "string"
        },
        {
          "internalType": "string",
          "name": "witness",
          "type": "string"
        },
        {
          "internalType": "string",
          "name": "incidentDate",
          "type": "string"
        },
        {
          "internalType": "string",
          "name": "details",
          "type": "string"
        }
      ],
      "stateMutability": "view",
      "type": "function",
      "constant": true
    },
    {
      "inputs": [
        {
          "internalType": "string",
          "name": "_name",
          "type": "string"
        },
        {
          "internalType": "string",
          "name": "_email",
          "type": "string"
        },
        {
          "internalType": "string",
          "name": "_phoneNumber",
          "type": "string"
        },
        {
          "internalType": "string",
          "name": "_streetAddress",
          "type": "string"
        },
        {
          "internalType": "string",
          "name": "_city",
          "type": "string"
        },
        {
          "internalType": "string",
          "name": "_zipCode",
          "type": "string"
        },
        {
          "internalType": "string",
          "name": "_witness",
          "type": "string"
        },
        {
          "internalType": "string",
          "name": "_incidentDate",
          "type": "string"
        },
        {
          "internalType": "string",
          "name": "_details",
          "type": "string"
        }
      ],
      "name": "launchFIR",
      "outputs": [],
      "stateMutability": "nonpayable",
      "type": "function"
    },
    {
      "inputs": [],
      "name": "getFIRCount",
      "outputs": [
        {
          "internalType": "uint256",
          "name": "",
          "type": "uint256"
        }
      ],
      "stateMutability": "view",
      "type": "function",
      "constant": true
    },
    {
      "inputs": [
        {
          "internalType": "uint256",
          "name": "index",
          "type": "uint256"
        }
      ],
      "name": "getFIR",
      "outputs": [
        {
          "internalType": "string",
          "name": "",
          "type": "string"
        },
        {
          "internalType": "string",
          "name": "",
          "type": "string"
        }
      ],
      "stateMutability": "view",
      "type": "function",
      "constant": true
    }
  ],
  "bytecode": "0x608060405234801561001057600080fd5b50610ec0806100206000396000f3fe608060405234801561001057600080fd5b50600436106100575760003560e01c806306533a601461005c578063177c09af1461007257806364a4f72a1461009a57806366da29a2146100af578063f1a5c418146100c2575b600080fd5b6001546040519081526020015b60405180910390f35b6100856100803660046109a1565b6100e3565b60405161006999989796959493929190610a17565b6100ad6100a8366004610b7f565b6105f1565b005b6100856100bd366004610ce4565b610802565b6100d56100d0366004610ce4565b610835565b604051610069929190610cfd565b6000602081905290815260409020805481906100fe90610d2b565b80601f016020809104026020016040519081016040528092919081815260200182805461012a90610d2b565b80156101775780601f1061014c57610100808354040283529160200191610177565b820191906000526020600020905b81548152906001019060200180831161015a57829003601f168201915b50505050509080600101805461018c90610d2b565b80601f01602080910402602001604051908101604052809291908181526020018280546101b890610d2b565b80156102055780601f106101da57610100808354040283529160200191610205565b820191906000526020600020905b8154815290600101906020018083116101e857829003601f168201915b50505050509080600201805461021a90610d2b565b80601f016020809104026020016040519081016040528092919081815260200182805461024690610d2b565b80156102935780601f1061026857610100808354040283529160200191610293565b820191906000526020600020905b81548152906001019060200180831161027657829003601f168201915b5050505050908060030180546102a890610d2b565b80601f01602080910402602001604051908101604052809291908181526020018280546102d490610d2b565b80156103215780601f106102f657610100808354040283529160200191610321565b820191906000526020600020905b81548152906001019060200180831161030457829003601f168201915b50505050509080600401805461033690610d2b565b80601f016020809104026020016040519081016040528092919081815260200182805461036290610d2b565b80156103af5780601f10610384576101008083540402835291602001916103af565b820191906000526020600020905b81548152906001019060200180831161039257829003601f168201915b5050505050908060050180546103c490610d2b565b80601f01602080910402602001604051908101604052809291908181526020018280546103f090610d2b565b801561043d5780601f106104125761010080835404028352916020019161043d565b820191906000526020600020905b81548152906001019060200180831161042057829003601f168201915b50505050509080600601805461045290610d2b565b80601f016020809104026020016040519081016040528092919081815260200182805461047e90610d2b565b80156104cb5780601f106104a0576101008083540402835291602001916104cb565b820191906000526020600020905b8154815290600101906020018083116104ae57829003601f168201915b5050505050908060070180546104e090610d2b565b80601f016020809104026020016040519081016040528092919081815260200182805461050c90610d2b565b80156105595780601f1061052e57610100808354040283529160200191610559565b820191906000526020600020905b81548152906001019060200180831161053c57829003601f168201915b50505050509080600801805461056e90610d2b565b80601f016020809104026020016040519081016040528092919081815260200182805461059a90610d2b565b80156105e75780601f106105bc576101008083540402835291602001916105e7565b820191906000526020600020905b8154815290600101906020018083116105ca57829003601f168201915b5050505050905089565b60408051610120810182528a815260208082018b90528183018a9052606082018990526080820188905260a0820187905260c0820186905260e0820185905261010082018490523360009081529081905291909120815182919081906106579082610db4565b506020820151600182019061066c9082610db4565b50604082015160028201906106819082610db4565b50606082015160038201906106969082610db4565b50608082015160048201906106ab9082610db4565b5060a082015160058201906106c09082610db4565b5060c082015160068201906106d59082610db4565b5060e082015160078201906106ea9082610db4565b5061010082015160088201906107009082610db4565b5050600180548082018255600091909152825183925060099091027fb10e2d527612073b26eecdfd717e6a320cf44b4afac2b0732d9fcbe2b7fa0cf60190819061074a9082610db4565b506020820151600182019061075f9082610db4565b50604082015160028201906107749082610db4565b50606082015160038201906107899082610db4565b506080820151600482019061079e9082610db4565b5060a082015160058201906107b39082610db4565b5060c082015160068201906107c89082610db4565b5060e082015160078201906107dd9082610db4565b5061010082015160088201906107f39082610db4565b50505050505050505050505050565b6001818154811061081257600080fd5b90600052602060002090600902016000915090508060000180546100fe90610d2b565b6060806001838154811061084b5761084b610e74565b90600052602060002090600902016000016001848154811061086f5761086f610e74565b906000526020600020906009020160010181805461088c90610d2b565b80601f01602080910402602001604051908101604052809291908181526020018280546108b890610d2b565b80156109055780601f106108da57610100808354040283529160200191610905565b820191906000526020600020905b8154815290600101906020018083116108e857829003601f168201915b5050505050915080805461091890610d2b565b80601f016020809104026020016040519081016040528092919081815260200182805461094490610d2b565b80156109915780601f1061096657610100808354040283529160200191610991565b820191906000526020600020905b81548152906001019060200180831161097457829003601f168201915b5050505050905091509150915091565b6000602082840312156109b357600080fd5b81356001600160a01b03811681146109ca57600080fd5b9392505050565b6000815180845260005b818110156109f7576020818501810151868301820152016109db565b506000602082860101526020601f19601f83011685010191505092915050565b6000610120808352610a2b8184018d6109d1565b90508281036020840152610a3f818c6109d1565b90508281036040840152610a53818b6109d1565b90508281036060840152610a67818a6109d1565b90508281036080840152610a7b81896109d1565b905082810360a0840152610a8f81886109d1565b905082810360c0840152610aa381876109d1565b905082810360e0840152610ab781866109d1565b9050828103610100840152610acc81856109d1565b9c9b505050505050505050505050565b634e487b7160e01b600052604160045260246000fd5b600082601f830112610b0357600080fd5b813567ffffffffffffffff80821115610b1e57610b1e610adc565b604051601f8301601f19908116603f01168101908282118183101715610b4657610b46610adc565b81604052838152866020858801011115610b5f57600080fd5b836020870160208301376000602085830101528094505050505092915050565b60008060008060008060008060006101208a8c031215610b9e57600080fd5b893567ffffffffffffffff80821115610bb657600080fd5b610bc28d838e01610af2565b9a5060208c0135915080821115610bd857600080fd5b610be48d838e01610af2565b995060408c0135915080821115610bfa57600080fd5b610c068d838e01610af2565b985060608c0135915080821115610c1c57600080fd5b610c288d838e01610af2565b975060808c0135915080821115610c3e57600080fd5b610c4a8d838e01610af2565b965060a08c0135915080821115610c6057600080fd5b610c6c8d838e01610af2565b955060c08c0135915080821115610c8257600080fd5b610c8e8d838e01610af2565b945060e08c0135915080821115610ca457600080fd5b610cb08d838e01610af2565b93506101008c0135915080821115610cc757600080fd5b50610cd48c828d01610af2565b9150509295985092959850929598565b600060208284031215610cf657600080fd5b5035919050565b604081526000610d1060408301856109d1565b8281036020840152610d2281856109d1565b95945050505050565b600181811c90821680610d3f57607f821691505b602082108103610d5f57634e487b7160e01b600052602260045260246000fd5b50919050565b601f821115610daf57600081815260208120601f850160051c81016020861015610d8c5750805b601f850160051c820191505b81811015610dab57828155600101610d98565b5050505b505050565b815167ffffffffffffffff811115610dce57610dce610adc565b610de281610ddc8454610d2b565b84610d65565b602080601f831160018114610e175760008415610dff5750858301515b600019600386901b1c1916600185901b178555610dab565b600085815260208120601f198616915b82811015610e4657888601518255948401946001909101908401610e27565b5085821015610e645787850151600019600388901b60f8161c191681555b5050505050600190811b01905550565b634e487b7160e01b600052603260045260246000fdfea2646970667358221220735e637d9ad30420e1e23d416a6286606296f5e608dbf5001a56c2b0df8e363964736f6c63430008130033",
  "immutableReferences": {},
  "source": "// SPDX-License-Identifier: MIT\npragma solidity ^0.8.14;\n\n\ncontract ProjectFIR {\n  \n  struct FIR {\n    string name;\n  string email;\n  string phoneNumber;\n  string streetAddress;\n  string city;\n  string zipCode;\n  string witness;\n  string incidentDate;\n  string details;\n  }\n\n  constructor()  {\n\n  }\n\n  mapping ( address => FIR ) public FIRBook;\n  FIR[] public Records;\n\n  function launchFIR (string memory _name, string memory _email, string memory _phoneNumber, string memory _streetAddress, \n  string memory _city, string memory _zipCode, string memory _witness, string memory _incidentDate,\n  string memory _details) public {\n      FIR memory report = FIR(_name, _email, _phoneNumber, _streetAddress, _city, _zipCode, _witness, _incidentDate, _details);\n      FIRBook[msg.sender] = report;\n      Records.push(report);\n  }\n   \n  function getFIRCount() public view returns(uint) {\n      return Records.length;\n  } \n\n  function getFIR(uint index) public view returns(string memory, string memory) {\n      return (Records[index].name, Records[index].email);\n  }\n  \n}",
  "sourcePath": "/home/recodee/Programming-Stuff/Blockchain-Projects/Blockchain/contracts/ProjectFIR.sol",
  "compiler": {
    "name": "solc",
    "version": "0.8.19+commit.7dd6d404.Emscripten.clang"
  },
  "schemaVersion": "3.4.13",
  "updatedAt": "2023-04-16T07:48:54.656Z",
  "networkType": "ethereum",
  "devdoc": {
    "kind": "dev",
    "methods": {},
    "version": 1
  },
  "userdoc": {
    "kind": "user",
    "methods": {},
    "version": 1
  }
}